{
  "_format": "hh-sol-artifact-1",
  "contractName": "FHEShieldSecure",
  "sourceName": "contracts/FHEShieldSecure.sol",
  "abi": [
    {
      "inputs": [],
      "stateMutability": "nonpayable",
      "type": "constructor"
    },
    {
      "anonymous": false,
      "inputs": [
        {
          "indexed": true,
          "internalType": "address",
          "name": "user",
          "type": "address"
        },
        {
          "indexed": true,
          "internalType": "bytes32",
          "name": "assessmentId",
          "type": "bytes32"
        },
        {
          "indexed": false,
          "internalType": "bool",
          "name": "approved",
          "type": "bool"
        }
      ],
      "name": "AssessmentApproved",
      "type": "event"
    },
    {
      "anonymous": false,
      "inputs": [
        {
          "indexed": true,
          "internalType": "address",
          "name": "user",
          "type": "address"
        },
        {
          "indexed": true,
          "internalType": "bytes32",
          "name": "assessmentId",
          "type": "bytes32"
        },
        {
          "indexed": false,
          "internalType": "uint256",
          "name": "timestamp",
          "type": "uint256"
        }
      ],
      "name": "AssessmentSubmitted",
      "type": "event"
    },
    {
      "anonymous": false,
      "inputs": [
        {
          "indexed": true,
          "internalType": "address",
          "name": "user",
          "type": "address"
        },
        {
          "indexed": false,
          "internalType": "uint256",
          "name": "amount",
          "type": "uint256"
        }
      ],
      "name": "FundsDeposited",
      "type": "event"
    },
    {
      "anonymous": false,
      "inputs": [
        {
          "indexed": true,
          "internalType": "address",
          "name": "user",
          "type": "address"
        },
        {
          "indexed": false,
          "internalType": "uint256",
          "name": "amount",
          "type": "uint256"
        }
      ],
      "name": "FundsWithdrawn",
      "type": "event"
    },
    {
      "anonymous": false,
      "inputs": [
        {
          "indexed": true,
          "internalType": "address",
          "name": "user",
          "type": "address"
        },
        {
          "indexed": true,
          "internalType": "bytes32",
          "name": "assessmentId",
          "type": "bytes32"
        }
      ],
      "name": "RiskScoreCalculated",
      "type": "event"
    },
    {
      "inputs": [
        {
          "internalType": "uint256",
          "name": "",
          "type": "uint256"
        }
      ],
      "name": "assessmentIds",
      "outputs": [
        {
          "internalType": "bytes32",
          "name": "",
          "type": "bytes32"
        }
      ],
      "stateMutability": "view",
      "type": "function"
    },
    {
      "inputs": [
        {
          "internalType": "bytes32",
          "name": "",
          "type": "bytes32"
        }
      ],
      "name": "assessments",
      "outputs": [
        {
          "internalType": "address",
          "name": "user",
          "type": "address"
        },
        {
          "internalType": "bytes32",
          "name": "id",
          "type": "bytes32"
        },
        {
          "internalType": "uint256",
          "name": "timestamp",
          "type": "uint256"
        },
        {
          "internalType": "bool",
          "name": "isProcessed",
          "type": "bool"
        },
        {
          "internalType": "bool",
          "name": "isApproved",
          "type": "bool"
        },
        {
          "internalType": "uint256",
          "name": "depositAmount",
          "type": "uint256"
        },
        {
          "internalType": "euint32",
          "name": "revenue",
          "type": "bytes32"
        },
        {
          "internalType": "euint32",
          "name": "employees",
          "type": "bytes32"
        },
        {
          "internalType": "euint8",
          "name": "industry",
          "type": "bytes32"
        },
        {
          "internalType": "euint8",
          "name": "businessType",
          "type": "bytes32"
        },
        {
          "internalType": "euint8",
          "name": "riskHistory",
          "type": "bytes32"
        },
        {
          "internalType": "euint8",
          "name": "complianceLevel",
          "type": "bytes32"
        },
        {
          "internalType": "euint32",
          "name": "coverageAmount",
          "type": "bytes32"
        },
        {
          "internalType": "euint32",
          "name": "deductible",
          "type": "bytes32"
        },
        {
          "internalType": "euint32",
          "name": "riskScore",
          "type": "bytes32"
        }
      ],
      "stateMutability": "view",
      "type": "function"
    },
    {
      "inputs": [
        {
          "internalType": "uint256",
          "name": "_amount",
          "type": "uint256"
        }
      ],
      "name": "emergencyWithdraw",
      "outputs": [],
      "stateMutability": "nonpayable",
      "type": "function"
    },
    {
      "inputs": [
        {
          "internalType": "bytes32",
          "name": "_assessmentId",
          "type": "bytes32"
        }
      ],
      "name": "getAssessment",
      "outputs": [
        {
          "internalType": "address",
          "name": "user",
          "type": "address"
        },
        {
          "internalType": "bytes32",
          "name": "id",
          "type": "bytes32"
        },
        {
          "internalType": "uint256",
          "name": "timestamp",
          "type": "uint256"
        },
        {
          "internalType": "bool",
          "name": "isProcessed",
          "type": "bool"
        },
        {
          "internalType": "bool",
          "name": "isApproved",
          "type": "bool"
        },
        {
          "internalType": "uint256",
          "name": "depositAmount",
          "type": "uint256"
        }
      ],
      "stateMutability": "view",
      "type": "function"
    },
    {
      "inputs": [],
      "name": "getContractStats",
      "outputs": [
        {
          "internalType": "uint256",
          "name": "assessments",
          "type": "uint256"
        },
        {
          "internalType": "uint256",
          "name": "deposits",
          "type": "uint256"
        },
        {
          "internalType": "uint256",
          "name": "withdrawals",
          "type": "uint256"
        },
        {
          "internalType": "uint256",
          "name": "contractBalance",
          "type": "uint256"
        }
      ],
      "stateMutability": "view",
      "type": "function"
    },
    {
      "inputs": [
        {
          "internalType": "bytes32",
          "name": "_assessmentId",
          "type": "bytes32"
        }
      ],
      "name": "getEncryptedAssessmentData",
      "outputs": [
        {
          "internalType": "euint32",
          "name": "revenue",
          "type": "bytes32"
        },
        {
          "internalType": "euint32",
          "name": "employees",
          "type": "bytes32"
        },
        {
          "internalType": "euint8",
          "name": "industry",
          "type": "bytes32"
        },
        {
          "internalType": "euint8",
          "name": "businessType",
          "type": "bytes32"
        },
        {
          "internalType": "euint8",
          "name": "riskHistory",
          "type": "bytes32"
        },
        {
          "internalType": "euint8",
          "name": "complianceLevel",
          "type": "bytes32"
        },
        {
          "internalType": "euint32",
          "name": "coverageAmount",
          "type": "bytes32"
        },
        {
          "internalType": "euint32",
          "name": "deductible",
          "type": "bytes32"
        },
        {
          "internalType": "euint32",
          "name": "riskScore",
          "type": "bytes32"
        }
      ],
      "stateMutability": "view",
      "type": "function"
    },
    {
      "inputs": [
        {
          "internalType": "address",
          "name": "_user",
          "type": "address"
        }
      ],
      "name": "getEncryptedUserAddress",
      "outputs": [
        {
          "internalType": "eaddress",
          "name": "",
          "type": "bytes32"
        }
      ],
      "stateMutability": "view",
      "type": "function"
    },
    {
      "inputs": [
        {
          "internalType": "bytes32",
          "name": "_assessmentId",
          "type": "bytes32"
        }
      ],
      "name": "getRiskScore",
      "outputs": [
        {
          "internalType": "euint32",
          "name": "",
          "type": "bytes32"
        }
      ],
      "stateMutability": "view",
      "type": "function"
    },
    {
      "inputs": [
        {
          "internalType": "address",
          "name": "_user",
          "type": "address"
        }
      ],
      "name": "getUserAssessments",
      "outputs": [
        {
          "internalType": "bytes32[]",
          "name": "",
          "type": "bytes32[]"
        }
      ],
      "stateMutability": "view",
      "type": "function"
    },
    {
      "inputs": [
        {
          "internalType": "address",
          "name": "_user",
          "type": "address"
        }
      ],
      "name": "getUserProfile",
      "outputs": [
        {
          "internalType": "bool",
          "name": "exists",
          "type": "bool"
        },
        {
          "internalType": "uint256",
          "name": "totalAssessments",
          "type": "uint256"
        },
        {
          "internalType": "uint256",
          "name": "totalDeposits",
          "type": "uint256"
        },
        {
          "internalType": "uint256",
          "name": "totalWithdrawals",
          "type": "uint256"
        },
        {
          "internalType": "bool",
          "name": "isActive",
          "type": "bool"
        },
        {
          "internalType": "uint256",
          "name": "balance",
          "type": "uint256"
        }
      ],
      "stateMutability": "view",
      "type": "function"
    },
    {
      "inputs": [],
      "name": "owner",
      "outputs": [
        {
          "internalType": "address",
          "name": "",
          "type": "address"
        }
      ],
      "stateMutability": "view",
      "type": "function"
    },
    {
      "inputs": [
        {
          "internalType": "bytes32",
          "name": "_assessmentId",
          "type": "bytes32"
        }
      ],
      "name": "processAssessment",
      "outputs": [],
      "stateMutability": "nonpayable",
      "type": "function"
    },
    {
      "inputs": [],
      "name": "protocolId",
      "outputs": [
        {
          "internalType": "uint256",
          "name": "",
          "type": "uint256"
        }
      ],
      "stateMutability": "pure",
      "type": "function"
    },
    {
      "inputs": [
        {
          "internalType": "externalEuint32",
          "name": "_revenueEncrypted",
          "type": "bytes32"
        },
        {
          "internalType": "externalEuint32",
          "name": "_employeesEncrypted",
          "type": "bytes32"
        },
        {
          "internalType": "externalEuint8",
          "name": "_industryEncrypted",
          "type": "bytes32"
        },
        {
          "internalType": "externalEuint8",
          "name": "_businessTypeEncrypted",
          "type": "bytes32"
        },
        {
          "internalType": "externalEuint8",
          "name": "_riskHistoryEncrypted",
          "type": "bytes32"
        },
        {
          "internalType": "externalEuint8",
          "name": "_complianceLevelEncrypted",
          "type": "bytes32"
        },
        {
          "internalType": "externalEuint32",
          "name": "_coverageAmountEncrypted",
          "type": "bytes32"
        },
        {
          "internalType": "externalEuint32",
          "name": "_deductibleEncrypted",
          "type": "bytes32"
        },
        {
          "internalType": "bytes",
          "name": "_inputProof",
          "type": "bytes"
        },
        {
          "internalType": "uint256",
          "name": "_depositAmount",
          "type": "uint256"
        }
      ],
      "name": "submitAssessment",
      "outputs": [],
      "stateMutability": "payable",
      "type": "function"
    },
    {
      "inputs": [],
      "name": "totalAssessments",
      "outputs": [
        {
          "internalType": "uint256",
          "name": "",
          "type": "uint256"
        }
      ],
      "stateMutability": "view",
      "type": "function"
    },
    {
      "inputs": [],
      "name": "totalDeposits",
      "outputs": [
        {
          "internalType": "uint256",
          "name": "",
          "type": "uint256"
        }
      ],
      "stateMutability": "view",
      "type": "function"
    },
    {
      "inputs": [],
      "name": "totalWithdrawals",
      "outputs": [
        {
          "internalType": "uint256",
          "name": "",
          "type": "uint256"
        }
      ],
      "stateMutability": "view",
      "type": "function"
    },
    {
      "inputs": [
        {
          "internalType": "address",
          "name": "_user",
          "type": "address"
        },
        {
          "internalType": "bool",
          "name": "_isActive",
          "type": "bool"
        }
      ],
      "name": "updateUserStatus",
      "outputs": [],
      "stateMutability": "nonpayable",
      "type": "function"
    },
    {
      "inputs": [
        {
          "internalType": "address",
          "name": "",
          "type": "address"
        }
      ],
      "name": "userBalances",
      "outputs": [
        {
          "internalType": "uint256",
          "name": "",
          "type": "uint256"
        }
      ],
      "stateMutability": "view",
      "type": "function"
    },
    {
      "inputs": [
        {
          "internalType": "address",
          "name": "",
          "type": "address"
        }
      ],
      "name": "userProfiles",
      "outputs": [
        {
          "internalType": "bool",
          "name": "exists",
          "type": "bool"
        },
        {
          "internalType": "uint256",
          "name": "totalAssessments",
          "type": "uint256"
        },
        {
          "internalType": "uint256",
          "name": "totalDeposits",
          "type": "uint256"
        },
        {
          "internalType": "uint256",
          "name": "totalWithdrawals",
          "type": "uint256"
        },
        {
          "internalType": "bool",
          "name": "isActive",
          "type": "bool"
        },
        {
          "internalType": "eaddress",
          "name": "encryptedAddress",
          "type": "bytes32"
        }
      ],
      "stateMutability": "view",
      "type": "function"
    },
    {
      "inputs": [
        {
          "internalType": "bytes32",
          "name": "_assessmentId",
          "type": "bytes32"
        }
      ],
      "name": "withdrawFunds",
      "outputs": [],
      "stateMutability": "nonpayable",
      "type": "function"
    },
    {
      "stateMutability": "payable",
      "type": "receive"
    }
  ],
  "bytecode": "0x6080604090808252346200042457620000188162000429565b60008082528060606020938285820152828682015201528251906200003d8262000429565b7350157cffd6bbfa2dece204a89ec419c23ef5755d918281528173cd3ab3bd6bcc0c0bf3e27912a92043e817b1cf69918286820152606073a02cda4ca3a71d7c46997716f4283aa851c28812918289820152731364cbbf2cdf5032c47d8226a6f6fbd2afcdacac918291015260018060a01b0319957f9e7b61f58c47dc699ac88507c4f5bb9f121c03808c5676a8078fe583e464970090878254161790557f9e7b61f58c47dc699ac88507c4f5bb9f121c03808c5676a8078fe583e46497019184878454161783557f9e7b61f58c47dc699ac88507c4f5bb9f121c03808c5676a8078fe583e464970290878254161790557f9e7b61f58c47dc699ac88507c4f5bb9f121c03808c5676a8078fe583e464970390868254161790556004943390865416178555865190639cd07acb60e01b918281528387820152878160249689888301528160449788925af19081156200041a578691620003e3575b50600855805488518381526001818901528581018890526001600160a01b03929189908290879082908b9088165af190811562000340578791620003b0575b5060095588886002868a8a87875416955195869485938b85528401528d8c8401525af1908115620003405787916200037d575b50600a5588886003868a8a87875416955195869485938b85528401528d8c8401525af1908115620003405787916200034a575b50600b55858883835416868c51809481938983528d808401528d8c8401525af190811562000340579189969594939188938491620002fa575b50600c5554168951978895869485526005828601528401525af1928315620002ee578193620002b4575b505050600d5551611d1f9081620004808239f35b9091809350813d8311620002e6575b620002cf81836200045b565b81010312620002e3575051388080620002a0565b80fd5b503d620002c3565b508351903d90823e3d90fd5b9294959697809294508391503d831162000338575b6200031b81836200045b565b8101031262000334579186918996959493513862000276565b8680fd5b503d6200030f565b8a513d89823e3d90fd5b90508881813d831162000375575b6200036481836200045b565b81010312620003345751386200023d565b503d62000358565b90508881813d8311620003a8575b6200039781836200045b565b81010312620003345751386200020a565b503d6200038b565b90508881813d8311620003db575b620003ca81836200045b565b8101031262000334575138620001d7565b503d620003be565b90508781813d831162000412575b620003fd81836200045b565b810103126200040e57513862000198565b8580fd5b503d620003f1565b89513d88823e3d90fd5b600080fd5b608081019081106001600160401b038211176200044557604052565b634e487b7160e01b600052604160045260246000fd5b601f909101601f19168101906001600160401b03821190821017620004455760405256fe60806040526004361015610047575b361561001957600080fd5b6040513481527f543ba50a5eec5e6178218e364b1d0f396157b3c8fa278522c2cb7fd99407d47460203392a2005b60003560e01c80630b4144b9146114a157806326224c6414611467578063288a4ca8146113435780632b08c955146113255780632b538237146112ed578063332d56d7146112725780635312ea8e146111e557806360464627146111c757806367b2204714610b605780636e2b54ee146109115780637d882097146108f35780638255343c146107d65780638da5cb5b146107ad5780638ed8617414610770578063987ee156146106b7578063a8bfac5114610583578063ab15a200146104a6578063da1f12ab14610489578063dfe6b5d614610454578063eb5aed411461018a5763f5b0eb1d0361000e57346101855760203660031901126101855760043560008181526020819052604090205461016a906001600160a01b031615156117bd565b60005260006020526020600d60406000200154604051908152f35b600080fd5b346101855760208060031936011261018557600480549035916001600160a01b03916101b990831633146115bd565b82600052600081526101d3826040600020541615156117bd565b8260005260008152604060002090600382019260ff84541661040f5761026b61025361024661023961022c61021b600854610215600d5460058c015490611809565b906118ca565b610215600d5460068b015490611809565b610215600789015461194b565b610215600888015461194b565b610215600987015461194b565b610215610263600a87015461194b565b600d54611809565b61028a600d850182815561027f3084611c11565b548386541690611c11565b6000600080516020611cca8339815191528484825416604460405180958193639cd07acb60e01b8352600f6004840152600460248401525af180156103b15785926000916103e0575b50848185156103d0575b156103bd575b6064919254169360006040519586948593637210768160e01b8552600485015260248401528160448401525af180156103b157610387575b507ffc743b82769667de1499a5a015b6017a6f0d3235b855a895fc0bf76fee5fecab9261010161ffff198654161780955554169260ff6040519186867fa2b70af74e0d0dbd90347d924af1f3bac15c7fa883d1e0a8e7c830988b1148be600080a360081c1615158152a3005b8290813d83116103aa575b61039c8183611660565b81010312610185578561031b565b503d610392565b6040513d6000823e3d90fd5b606491506103c9611c79565b91506102e3565b94506103da611c79565b946102dd565b83819492503d8311610408575b6103f78183611660565b8101031261018557849151896102d3565b503d6103ed565b60405162461bcd60e51b815260048101839052601c60248201527f4173736573736d656e7420616c72656164792070726f636573736564000000006044820152606490fd5b346101855760003660031901126101855760806005546006546007544791604051938452602084015260408301526060820152f35b346101855760003660031901126101855760206040516127118152f35b346101855760203660031901126101855760043560005260006020526040600020600160a01b600190038154169060018101549060028101546003820154600483015460058401546006850154600786015490600887015492600988015494600a89015496600b8a015498600c8b01549a600d01549b604051809e81526020015260408d015260ff8116151560608d015260081c60ff16151560808c015260a08b015260c08a015260e08901526101008801526101208701526101408601526101608501526101808401526101a08301526101c08201526101e090f35b346101855760203660031901126101855760043580600052600060205260018060a01b03906105ba826040600020541615156117bd565b60005260006020526040600020604051916105d483611613565b8154168252600181015460208301526002810154604083015260ff60038201548181161515606085015260081c1615156080830152600481015460a08301526101c06005820154918260c08501526006810154908160e086015260078101549461010092868483015260088301549661012097808985015260098501549182610140860152600a8601549384610160870152600b8701549586610180820152600d600c89015498896101a08401520154998a910152604051998a5260208a015260408901526060880152608087015260a086015260c085015260e0840152820152f35b346101855760203660031901126101855760c06001600160a01b036106da61155a565b16806000526001602052604060002090604051916106f783611630565b60ff81541615159283815260018201549283602083015260028301549081604084015260038401549283606082015260a0600560ff6004880154161515968760808501520154910152600052600260205260406000205493604051958652602086015260408501526060840152608083015260a0820152f35b34610185576020366003190112610185576001600160a01b0361079161155a565b1660005260016020526020600560406000200154604051908152f35b34610185576000366003190112610185576004546040516001600160a01b039091168152602090f35b346101855760203660031901126101855760c060043580600052600060205260018060a01b039061080f826040600020541615156117bd565b600052600060205260406000206040519161082983611613565b815416918281526001820154806020830152600283015480604084015260038401549160ff80841615159384606087015260081c161515938460808201526101c0600d6004880154978860a085015260058101548b850152600681015460e0850152600781015461010085015260088101546101208501526009810154610140850152600a810154610160850152600b810154610180850152600c8101546101a08501520154910152604051958652602086015260408501526060840152608083015260a0820152f35b34610185576000366003190112610185576020600654604051908152f35b346101855760208060031936011261018557600435600081815280835260409020546001600160a01b039061094990821615156117bd565b8160005260008352604060002054163303610b065760005260008152604060002090600382015460ff811615610ac15760081c60ff1615610a7d5733600052600281526004604060002054920154809210610a425733600052600281526040600020908154838103908111610a2c577feaff4b37086828766ad3268786972c0cd24259d4c87a80f9d3963a3c3d999b0d9255336000526001815260036040600020016109f68482546117b0565b9055610a04836007546117b0565b600755610a21600080808087335af1610a1b61170b565b5061173b565b6040519283523392a2005b634e487b7160e01b600052601160045260246000fd5b6064906040519062461bcd60e51b825260048201526014602482015273496e73756666696369656e742062616c616e636560601b6044820152fd5b6064906040519062461bcd60e51b82526004820152601760248201527f4173736573736d656e74206e6f7420617070726f7665640000000000000000006044820152fd5b60405162461bcd60e51b815260048101839052601c60248201527f4173736573736d656e74206e6f74207965742070726f636573736564000000006044820152606490fd5b60405162461bcd60e51b815260048101839052602c60248201527f4f6e6c79206173736573736d656e74206f776e65722063616e2063616c6c207460448201526b3434b990333ab731ba34b7b760a11b6064820152608490fd5b610140366003190112610185576101043567ffffffffffffffff8082116101855736602383011215610185578160040135908111610185573660248284010111610185576101243515611174576101243534106111385760405160208101903360601b8252426034820152826024850160548301378083810161012435605482015203605481018252607401610bf69082611660565b51902091610c08368360248401611779565b610c14906004356119cc565b91610c23368260248501611779565b610c2f906024356119cc565b610c3d368360248601611779565b610c4990604435611b14565b610c57368460248701611779565b610c6390606435611b14565b90610c72368560248801611779565b610c7e90608435611b14565b92610c8d368660248901611779565b610c999060a435611b14565b94610ca8368260248a01611779565b610cb49060c4356119cc565b96610cc3913691602401611779565b610ccf9060e4356119cc565b9660085460405190610ce082611613565b3382528a6020830152426040830152606082016000905260808201600090526101243560a08301528260c08301528360e08301528461010083015285610120830152866101408301528761016083015288610180830152896101a08301526101c0820152896000526000602052604060002090600160a01b600190038151166bffffffffffffffffffffffff60a01b83541617825560208101516001830155604081015160028301556003820160608201511515610daa90829060ff801983541691151516179055565b6080820151151581549060081b61ff00169061ff00191617905560a0810151600483015560c0810151600583015560e08101516006830155610100810151600783015561012081015160088301556101408101516009830155610160810151600a830155610180810151600b8301556101a0810151600c8301556101c0015190600d015530610e399082611c11565b33610e4391611c11565b610e4d3082611c11565b33610e5791611c11565b610e613082611c11565b33610e6b91611c11565b610e753082611c11565b33610e7f91611c11565b610e893082611c11565b33610e9391611c11565b610e9d3082611c11565b33610ea791611c11565b610eb13082611c11565b33610ebb91611c11565b610ec53082611c11565b33610ecf91611c11565b33600052600160205260406000205460ff1615611006575b6001604060002001610ef981546116e0565b90553360005260016020526002604060002001610f1a6101243582546117b0565b90553360005260026020526040600020610f386101243582546117b0565b905560035468010000000000000000811015610ff057806001610f5e9201600355611570565b81549060031b9083821b91600019901b1916179055610f7e6005546116e0565b600555610f90610124356006546117b0565b6006556040514281527f22352652ad18ef895283c2e09a8af4a5c1547b0acc61c4137a66f263219279ed60203392a36040516101243581527f543ba50a5eec5e6178218e364b1d0f396157b3c8fa278522c2cb7fd99407d47460203392a2005b634e487b7160e01b600052604160045260246000fd5b600080516020611cca83398151915254604051639cd07acb60e01b81523360048201526007602482015290602090829060449082906000906001600160a01b03165af19081156103b157600091611106575b506110633082611c11565b61106d3382611c11565b60056040519161107c83611630565b600183526110fd6020840160008152604085016000815260608601906000825260808701926001845260a088019586523360005260016020526110d3604060002098511515899060ff801983541691151516179055565b516001880155516002870155516003860155511515600485019060ff801983541691151516179055565b51910155610ee7565b90506020813d602011611130575b8161112160209383611660565b81010312610185575182611058565b3d9150611114565b60405162461bcd60e51b8152602060048201526014602482015273125b9cdd59999a58da595b9d081c185e5b595b9d60621b6044820152606490fd5b60405162461bcd60e51b815260206004820152602560248201527f4465706f73697420616d6f756e74206d75737420626520677265617465722074604482015264068616e20360dc1b6064820152608490fd5b34610185576000366003190112610185576020600754604051908152f35b3461018557602036600319011261018557600480546001600160a01b031690356112103383146115bd565b47811161122d5760008080809361122b955af1610a1b61170b565b005b60405162461bcd60e51b815260206004820152601d60248201527f496e73756666696369656e7420636f6e74726163742062616c616e63650000006044820152606490fd5b34610185576020366003190112610185576001600160a01b0361129361155a565b16600052600160205260c0604060002060ff815416906001810154906002810154600382015490600560ff6004850154169301549360405195151586526020860152604085015260608401521515608083015260a0820152f35b346101855760203660031901126101855760043560035481101561018557611316602091611570565b90549060031b1c604051908152f35b34610185576000366003190112610185576020600554604051908152f35b34610185576020806003193601126101855761135d61155a565b906003805461136b8161169a565b6000949092906001600160a01b0390811690865b848110611406578787876113928361169a565b9260005b8181106113e2575050506040519181839283018184528251809152816040850193019160005b8281106113cb57505050500390f35b8351855286955093810193928101926001016113bc565b806113f16001928597956116cc565b516113fc82866116cc565b5201939193611396565b61141281989698611570565b905490851b1c6000526000875282826040600020541614611439575b60010196949661137f565b9461145f60019161144988611570565b905490871b1c611459828c6116cc565b526116e0565b95905061142e565b34610185576020366003190112610185576001600160a01b0361148861155a565b1660005260026020526020604060002054604051908152f35b34610185576040366003190112610185576114ba61155a565b602435908115158203610185576004546001600160a01b0391906114e190831633146115bd565b169081600052600160205260ff604060002054161561151f5761122b91600052600160205260046040600020019060ff801983541691151516179055565b60405162461bcd60e51b8152602060048201526013602482015272155cd95c88191bd95cc81b9bdd08195e1a5cdd606a1b6044820152606490fd5b600435906001600160a01b038216820361018557565b6003548110156115a75760036000527fc2575a0e9e593c00f959f8c92f12db2869c3395a3b0502d05e2516446f71f85b0190600090565b634e487b7160e01b600052603260045260246000fd5b156115c457565b60405162461bcd60e51b815260206004820152602160248201527f4f6e6c79206f776e65722063616e2063616c6c20746869732066756e6374696f6044820152603760f91b6064820152608490fd5b6101e0810190811067ffffffffffffffff821117610ff057604052565b60c0810190811067ffffffffffffffff821117610ff057604052565b67ffffffffffffffff8111610ff057604052565b90601f8019910116810190811067ffffffffffffffff821117610ff057604052565b67ffffffffffffffff8111610ff05760051b60200190565b906116a482611682565b6116b16040519182611660565b82815280926116c2601f1991611682565b0190602036910137565b80518210156115a75760209160051b010190565b6000198114610a2c5760010190565b67ffffffffffffffff8111610ff057601f01601f191660200190565b3d15611736573d9061171c826116ef565b9161172a6040519384611660565b82523d6000602084013e565b606090565b1561174257565b60405162461bcd60e51b815260206004820152600f60248201526e151c985b9cd9995c8819985a5b1959608a1b6044820152606490fd5b929192611785826116ef565b916117936040519384611660565b829481845281830111610185578281602093846000960137010152565b91908201809211610a2c57565b156117c457565b60405162461bcd60e51b815260206004820152601960248201527f4173736573736d656e7420646f6573206e6f74206578697374000000000000006044820152606490fd5b80156118bc575b81156118ac575b60018060a01b03600080516020611cca833981519152541691604051916303056db360e31b835260048301526024820152602081606481600080968160448401525af19182156118a057809261186c57505090565b9091506020823d602011611898575b8161188860209383611660565b8101031261189557505190565b80fd5b3d915061187b565b604051903d90823e3d90fd5b90506118b6611c79565b90611817565b506118c5611c79565b611810565b801561193d575b811561192d575b60018060a01b03600080516020611cca8339815191525416916040519163022f65e760e31b835260048301526024820152602081606481600080968160448401525af19182156118a057809261186c57505090565b9050611937611c79565b906118d8565b50611946611c79565b6118d1565b6020600091604460018060a01b03600080516020611cca83398151915254169160405194859384926307227b9160e21b84526004840152600460248401525af19081156103b15760009161199d575090565b90506020813d6020116119c4575b816119b860209383611660565b81010312610185575190565b3d91506119ab565b600080516020611cca8339815191525460405163196d0b9b60e01b81526004810192909252336024830152608060448301528251608483018190526001600160a01b0394939185169183919060005b828110611afc5750509181600060a4828683836020998401015260046064830152601f801991011681010301925af19081156103b157600091611aca575b5080927f9e7b61f58c47dc699ac88507c4f5bb9f121c03808c5676a8078fe583e46497005416803b1561018557604051630f8e573b60e21b815260048101929092523360248301526000908290818381604481015b03925af180156103b157611abf5750565b611ac89061164c565b565b90506020813d602011611af4575b81611ae560209383611660565b81010312610185575138611a59565b3d9150611ad8565b602082820181015160a4888401015286945001611a1b565b600080516020611cca8339815191525460405163196d0b9b60e01b81526004810192909252336024830152608060448301528251608483018190526001600160a01b0394939185169183919060005b828110611bf95750509181600060a4828683836020998401015260026064830152601f801991011681010301925af19081156103b157600091611aca575080927f9e7b61f58c47dc699ac88507c4f5bb9f121c03808c5676a8078fe583e46497005416803b1561018557604051630f8e573b60e21b81526004810192909252336024830152600090829081838160448101611aae565b602082820181015160a4888401015286945001611b63565b7f9e7b61f58c47dc699ac88507c4f5bb9f121c03808c5676a8078fe583e4649700546001600160a01b031691823b1561018557604051635ca4b5b160e11b815260048101929092526001600160a01b0316602482015290600090829081838160448101611aae565b60018060a01b03600080516020611cca8339815191525416604051639cd07acb60e01b815260208160448160008096816004840152600460248401525af19182156118a057809261186c5750509056fe9e7b61f58c47dc699ac88507c4f5bb9f121c03808c5676a8078fe583e4649701a2646970667358221220845a56475d52c96010d1135e19eeabaf2e80672daae87bc87d7d9912aeb34f1464736f6c63430008180033",
  "linkReferences": {},
  "deployedLinkReferences": {}
}